{
  "contractName": "TokenSale",
  "abi": [
    {
      "inputs": [
        {
          "internalType": "contract IERC20",
          "name": "_tokenContract",
          "type": "address"
        },
        {
          "internalType": "uint256",
          "name": "_tokenPrice",
          "type": "uint256"
        }
      ],
      "stateMutability": "nonpayable",
      "type": "constructor"
    },
    {
      "anonymous": false,
      "inputs": [
        {
          "indexed": false,
          "internalType": "address",
          "name": "_buyer",
          "type": "address"
        },
        {
          "indexed": false,
          "internalType": "uint256",
          "name": "_amount",
          "type": "uint256"
        }
      ],
      "name": "Sell",
      "type": "event"
    },
    {
      "inputs": [],
      "name": "admin",
      "outputs": [
        {
          "internalType": "address",
          "name": "",
          "type": "address"
        }
      ],
      "stateMutability": "view",
      "type": "function"
    },
    {
      "inputs": [],
      "name": "tokenContract",
      "outputs": [
        {
          "internalType": "contract IERC20",
          "name": "",
          "type": "address"
        }
      ],
      "stateMutability": "view",
      "type": "function"
    },
    {
      "inputs": [],
      "name": "tokenPrice",
      "outputs": [
        {
          "internalType": "uint256",
          "name": "",
          "type": "uint256"
        }
      ],
      "stateMutability": "view",
      "type": "function"
    },
    {
      "inputs": [],
      "name": "tokensSold",
      "outputs": [
        {
          "internalType": "uint256",
          "name": "",
          "type": "uint256"
        }
      ],
      "stateMutability": "view",
      "type": "function"
    },
    {
      "inputs": [
        {
          "internalType": "uint256",
          "name": "_numberOfTokens",
          "type": "uint256"
        }
      ],
      "name": "buyTokens",
      "outputs": [],
      "stateMutability": "payable",
      "type": "function"
    },
    {
      "inputs": [],
      "name": "endSale",
      "outputs": [],
      "stateMutability": "nonpayable",
      "type": "function"
    }
  ],
  "bytecode": "0x60806040523480156200001157600080fd5b5060405162000f4138038062000f41833981810160405281019062000037919062000180565b336000806101000a81548173ffffffffffffffffffffffffffffffffffffffff021916908373ffffffffffffffffffffffffffffffffffffffff16021790555081600160006101000a81548173ffffffffffffffffffffffffffffffffffffffff021916908373ffffffffffffffffffffffffffffffffffffffff160217905550806002819055505050620001c7565b600080fd5b600073ffffffffffffffffffffffffffffffffffffffff82169050919050565b6000620000f982620000cc565b9050919050565b60006200010d82620000ec565b9050919050565b6200011f8162000100565b81146200012b57600080fd5b50565b6000815190506200013f8162000114565b92915050565b6000819050919050565b6200015a8162000145565b81146200016657600080fd5b50565b6000815190506200017a816200014f565b92915050565b600080604083850312156200019a5762000199620000c7565b5b6000620001aa858286016200012e565b9250506020620001bd8582860162000169565b9150509250929050565b610d6a80620001d76000396000f3fe6080604052600436106100555760003560e01c80633610724e1461005a578063380d831b14610076578063518ab2a81461008d57806355a373d6146100b85780637ff9b596146100e3578063f851a4401461010e575b600080fd5b610074600480360381019061006f9190610727565b610139565b005b34801561008257600080fd5b5061008b610398565b005b34801561009957600080fd5b506100a2610629565b6040516100af9190610763565b60405180910390f35b3480156100c457600080fd5b506100cd61062f565b6040516100da91906107fd565b60405180910390f35b3480156100ef57600080fd5b506100f8610655565b6040516101059190610763565b60405180910390f35b34801561011a57600080fd5b5061012361065b565b6040516101309190610839565b60405180910390f35b6101458160025461067f565b3414610186576040517f08c379a000000000000000000000000000000000000000000000000000000000815260040161017d906108b1565b60405180910390fd5b80600160009054906101000a900473ffffffffffffffffffffffffffffffffffffffff1673ffffffffffffffffffffffffffffffffffffffff166370a08231306040518263ffffffff1660e01b81526004016101e29190610839565b602060405180830381865afa1580156101ff573d6000803e3d6000fd5b505050506040513d601f19601f8201168201806040525081019061022391906108e6565b1015610264576040517f08c379a000000000000000000000000000000000000000000000000000000000815260040161025b90610985565b60405180910390fd5b600160009054906101000a900473ffffffffffffffffffffffffffffffffffffffff1673ffffffffffffffffffffffffffffffffffffffff1663a9059cbb33836040518363ffffffff1660e01b81526004016102c19291906109a5565b6020604051808303816000875af11580156102e0573d6000803e3d6000fd5b505050506040513d601f19601f820116820180604052508101906103049190610a06565b610343576040517f08c379a000000000000000000000000000000000000000000000000000000000815260040161033a90610a7f565b60405180910390fd5b80600360008282546103559190610ace565b925050819055507f5e5e995ce3133561afceaa51a9a154d5db228cd7525d34df5185582c18d3df09338260405161038d9291906109a5565b60405180910390a150565b60008054906101000a900473ffffffffffffffffffffffffffffffffffffffff1673ffffffffffffffffffffffffffffffffffffffff163373ffffffffffffffffffffffffffffffffffffffff1614610426576040517f08c379a000000000000000000000000000000000000000000000000000000000815260040161041d90610b4e565b60405180910390fd5b600160009054906101000a900473ffffffffffffffffffffffffffffffffffffffff1673ffffffffffffffffffffffffffffffffffffffff1663a9059cbb60008054906101000a900473ffffffffffffffffffffffffffffffffffffffff16600160009054906101000a900473ffffffffffffffffffffffffffffffffffffffff1673ffffffffffffffffffffffffffffffffffffffff166370a08231306040518263ffffffff1660e01b81526004016104e09190610839565b602060405180830381865afa1580156104fd573d6000803e3d6000fd5b505050506040513d601f19601f8201168201806040525081019061052191906108e6565b6040518363ffffffff1660e01b815260040161053e9291906109a5565b6020604051808303816000875af115801561055d573d6000803e3d6000fd5b505050506040513d601f19601f820116820180604052508101906105819190610a06565b6105c0576040517f08c379a00000000000000000000000000000000000000000000000000000000081526004016105b790610be0565b60405180910390fd5b60008054906101000a900473ffffffffffffffffffffffffffffffffffffffff1673ffffffffffffffffffffffffffffffffffffffff166108fc479081150290604051600060405180830381858888f19350505050158015610626573d6000803e3d6000fd5b50565b60035481565b600160009054906101000a900473ffffffffffffffffffffffffffffffffffffffff1681565b60025481565b60008054906101000a900473ffffffffffffffffffffffffffffffffffffffff1681565b6000808214806106a75750828283856106989190610c00565b9250826106a59190610c71565b145b6106e6576040517f08c379a00000000000000000000000000000000000000000000000000000000081526004016106dd90610d14565b60405180910390fd5b92915050565b600080fd5b6000819050919050565b610704816106f1565b811461070f57600080fd5b50565b600081359050610721816106fb565b92915050565b60006020828403121561073d5761073c6106ec565b5b600061074b84828501610712565b91505092915050565b61075d816106f1565b82525050565b60006020820190506107786000830184610754565b92915050565b600073ffffffffffffffffffffffffffffffffffffffff82169050919050565b6000819050919050565b60006107c36107be6107b98461077e565b61079e565b61077e565b9050919050565b60006107d5826107a8565b9050919050565b60006107e7826107ca565b9050919050565b6107f7816107dc565b82525050565b600060208201905061081260008301846107ee565b92915050565b60006108238261077e565b9050919050565b61083381610818565b82525050565b600060208201905061084e600083018461082a565b92915050565b600082825260208201905092915050565b7f496e636f727265637420616d6f756e74206f662065746865722073656e740000600082015250565b600061089b601e83610854565b91506108a682610865565b602082019050919050565b600060208201905081810360008301526108ca8161088e565b9050919050565b6000815190506108e0816106fb565b92915050565b6000602082840312156108fc576108fb6106ec565b5b600061090a848285016108d1565b91505092915050565b7f4e6f7420656e6f75676820746f6b656e7320617661696c61626c6520696e207460008201527f686520636f6e7472616374000000000000000000000000000000000000000000602082015250565b600061096f602b83610854565b915061097a82610913565b604082019050919050565b6000602082019050818103600083015261099e81610962565b9050919050565b60006040820190506109ba600083018561082a565b6109c76020830184610754565b9392505050565b60008115159050919050565b6109e3816109ce565b81146109ee57600080fd5b50565b600081519050610a00816109da565b92915050565b600060208284031215610a1c57610a1b6106ec565b5b6000610a2a848285016109f1565b91505092915050565b7f546f6b656e207472616e73666572206661696c65640000000000000000000000600082015250565b6000610a69601583610854565b9150610a7482610a33565b602082019050919050565b60006020820190508181036000830152610a9881610a5c565b9050919050565b7f4e487b7100000000000000000000000000000000000000000000000000000000600052601160045260246000fd5b6000610ad9826106f1565b9150610ae4836106f1565b9250828201905080821115610afc57610afb610a9f565b5b92915050565b7f4f6e6c792061646d696e2063616e20656e64207468652073616c650000000000600082015250565b6000610b38601b83610854565b9150610b4382610b02565b602082019050919050565b60006020820190508181036000830152610b6781610b2b565b9050919050565b7f556e61626c6520746f207472616e7366657220746f6b656e7320746f2061646d60008201527f696e000000000000000000000000000000000000000000000000000000000000602082015250565b6000610bca602283610854565b9150610bd582610b6e565b604082019050919050565b60006020820190508181036000830152610bf981610bbd565b9050919050565b6000610c0b826106f1565b9150610c16836106f1565b9250828202610c24816106f1565b91508282048414831517610c3b57610c3a610a9f565b5b5092915050565b7f4e487b7100000000000000000000000000000000000000000000000000000000600052601260045260246000fd5b6000610c7c826106f1565b9150610c87836106f1565b925082610c9757610c96610c42565b5b828204905092915050565b7f536166654d6174683a206d756c7469706c69636174696f6e206f766572666c6f60008201527f7700000000000000000000000000000000000000000000000000000000000000602082015250565b6000610cfe602183610854565b9150610d0982610ca2565b604082019050919050565b60006020820190508181036000830152610d2d81610cf1565b905091905056fea2646970667358221220f0e5519ae9a59ce6fecffc3f1c15db151da557cda4446545c1383fe1f3aa26dd64736f6c63430008130033",
  "immutableReferences": {},
  "source": "// SPDX-License-Identifier: MIT\r\n\r\npragma solidity ^0.8.0;\r\n\r\nimport \"@openzeppelin/contracts/token/ERC20/IERC20.sol\";\r\n\r\ncontract TokenSale {\r\n    address public admin;\r\n    IERC20 public tokenContract;\r\n    uint256 public tokenPrice;\r\n    uint256 public tokensSold;\r\n\r\n    event Sell(address _buyer, uint256 _amount);\r\n\r\n    constructor(IERC20 _tokenContract, uint256 _tokenPrice) {\r\n        admin = msg.sender;\r\n        tokenContract = _tokenContract;\r\n        tokenPrice = _tokenPrice;\r\n    }\r\n\r\n    function buyTokens(uint256 _numberOfTokens) public payable {\r\n        require(\r\n            msg.value == multiply(_numberOfTokens, tokenPrice),\r\n            \"Incorrect amount of ether sent\"\r\n        );\r\n        require(\r\n            tokenContract.balanceOf(address(this)) >= _numberOfTokens,\r\n            \"Not enough tokens available in the contract\"\r\n        );\r\n        require(\r\n            tokenContract.transfer(msg.sender, _numberOfTokens),\r\n            \"Token transfer failed\"\r\n        );\r\n\r\n        tokensSold += _numberOfTokens;\r\n\r\n        emit Sell(msg.sender, _numberOfTokens);\r\n    }\r\n\r\n    function endSale() public {\r\n        require(msg.sender == admin, \"Only admin can end the sale\");\r\n        require(\r\n            tokenContract.transfer(\r\n                admin,\r\n                tokenContract.balanceOf(address(this))\r\n            ),\r\n            \"Unable to transfer tokens to admin\"\r\n        );\r\n\r\n        // Just transfer the balance to the admin, but you can also implement a withdrawal pattern here\r\n        payable(admin).transfer(address(this).balance);\r\n    }\r\n\r\n    function multiply(uint x, uint y) internal pure returns (uint z) {\r\n        require(\r\n            y == 0 || (z = x * y) / y == x,\r\n            \"SafeMath: multiplication overflow\"\r\n        );\r\n    }\r\n}\r\n",
  "sourcePath": "C:\\Users\\Fonck\\Development\\web3-rocketeers\\token-sale-contract\\contracts\\token-sale.sol",
  "compiler": {
    "name": "solc",
    "version": "0.8.19+commit.7dd6d404.Emscripten.clang"
  },
  "schemaVersion": "3.4.13",
  "updatedAt": "2023-04-16T23:53:08.210Z",
  "devdoc": {
    "kind": "dev",
    "methods": {},
    "version": 1
  },
  "userdoc": {
    "kind": "user",
    "methods": {},
    "version": 1
  }
}