{
  "contractName": "TokenSale",
  "abi": [
    {
      "inputs": [
        {
          "internalType": "contract IERC20",
          "name": "_token",
          "type": "address"
        },
        {
          "internalType": "uint256",
          "name": "_price",
          "type": "uint256"
        }
      ],
      "stateMutability": "nonpayable",
      "type": "constructor"
    },
    {
      "anonymous": false,
      "inputs": [
        {
          "indexed": true,
          "internalType": "address",
          "name": "previousOwner",
          "type": "address"
        },
        {
          "indexed": true,
          "internalType": "address",
          "name": "newOwner",
          "type": "address"
        }
      ],
      "name": "OwnershipTransferred",
      "type": "event"
    },
    {
      "anonymous": false,
      "inputs": [
        {
          "indexed": false,
          "internalType": "address",
          "name": "account",
          "type": "address"
        }
      ],
      "name": "Paused",
      "type": "event"
    },
    {
      "anonymous": false,
      "inputs": [
        {
          "indexed": true,
          "internalType": "address",
          "name": "_buyer",
          "type": "address"
        },
        {
          "indexed": false,
          "internalType": "uint256",
          "name": "_amount",
          "type": "uint256"
        }
      ],
      "name": "Sell",
      "type": "event"
    },
    {
      "anonymous": false,
      "inputs": [
        {
          "indexed": false,
          "internalType": "address",
          "name": "account",
          "type": "address"
        }
      ],
      "name": "Unpaused",
      "type": "event"
    },
    {
      "inputs": [],
      "name": "isTimeBased",
      "outputs": [
        {
          "internalType": "bool",
          "name": "",
          "type": "bool"
        }
      ],
      "stateMutability": "view",
      "type": "function"
    },
    {
      "inputs": [],
      "name": "owner",
      "outputs": [
        {
          "internalType": "address",
          "name": "",
          "type": "address"
        }
      ],
      "stateMutability": "view",
      "type": "function"
    },
    {
      "inputs": [],
      "name": "paused",
      "outputs": [
        {
          "internalType": "bool",
          "name": "",
          "type": "bool"
        }
      ],
      "stateMutability": "view",
      "type": "function"
    },
    {
      "inputs": [],
      "name": "price",
      "outputs": [
        {
          "internalType": "uint256",
          "name": "",
          "type": "uint256"
        }
      ],
      "stateMutability": "view",
      "type": "function"
    },
    {
      "inputs": [
        {
          "internalType": "uint256",
          "name": "",
          "type": "uint256"
        }
      ],
      "name": "priceChangeTimestamps",
      "outputs": [
        {
          "internalType": "uint256",
          "name": "",
          "type": "uint256"
        }
      ],
      "stateMutability": "view",
      "type": "function"
    },
    {
      "inputs": [
        {
          "internalType": "uint256",
          "name": "",
          "type": "uint256"
        }
      ],
      "name": "prices",
      "outputs": [
        {
          "internalType": "uint256",
          "name": "",
          "type": "uint256"
        }
      ],
      "stateMutability": "view",
      "type": "function"
    },
    {
      "inputs": [],
      "name": "renounceOwnership",
      "outputs": [],
      "stateMutability": "nonpayable",
      "type": "function"
    },
    {
      "inputs": [],
      "name": "token",
      "outputs": [
        {
          "internalType": "contract IERC20",
          "name": "",
          "type": "address"
        }
      ],
      "stateMutability": "view",
      "type": "function"
    },
    {
      "inputs": [
        {
          "internalType": "address",
          "name": "newOwner",
          "type": "address"
        }
      ],
      "name": "transferOwnership",
      "outputs": [],
      "stateMutability": "nonpayable",
      "type": "function"
    },
    {
      "inputs": [],
      "name": "buyTokens",
      "outputs": [],
      "stateMutability": "payable",
      "type": "function"
    },
    {
      "inputs": [],
      "name": "getCurrentPrice",
      "outputs": [
        {
          "internalType": "uint256",
          "name": "",
          "type": "uint256"
        }
      ],
      "stateMutability": "view",
      "type": "function"
    },
    {
      "inputs": [
        {
          "internalType": "uint256",
          "name": "_price",
          "type": "uint256"
        }
      ],
      "name": "setPrice",
      "outputs": [],
      "stateMutability": "nonpayable",
      "type": "function"
    },
    {
      "inputs": [
        {
          "internalType": "uint256[]",
          "name": "newPrices",
          "type": "uint256[]"
        },
        {
          "internalType": "uint256[]",
          "name": "timestamps",
          "type": "uint256[]"
        }
      ],
      "name": "switchToTimeBasedTiers",
      "outputs": [],
      "stateMutability": "nonpayable",
      "type": "function"
    },
    {
      "inputs": [],
      "name": "pause",
      "outputs": [],
      "stateMutability": "nonpayable",
      "type": "function"
    },
    {
      "inputs": [],
      "name": "unpause",
      "outputs": [],
      "stateMutability": "nonpayable",
      "type": "function"
    },
    {
      "inputs": [],
      "name": "endSale",
      "outputs": [],
      "stateMutability": "nonpayable",
      "type": "function"
    }
  ],
  "bytecode": "0x60806040526000600360006101000a81548160ff0219169083151502179055503480156200002c57600080fd5b5060405162001b8838038062001b88833981810160405281019062000052919062000261565b6200007262000066620000dc60201b60201c565b620000e460201b60201c565b60008060146101000a81548160ff02191690831515021790555081600160006101000a81548173ffffffffffffffffffffffffffffffffffffffff021916908373ffffffffffffffffffffffffffffffffffffffff160217905550806002819055505050620002a8565b600033905090565b60008060009054906101000a900473ffffffffffffffffffffffffffffffffffffffff169050816000806101000a81548173ffffffffffffffffffffffffffffffffffffffff021916908373ffffffffffffffffffffffffffffffffffffffff1602179055508173ffffffffffffffffffffffffffffffffffffffff168173ffffffffffffffffffffffffffffffffffffffff167f8be0079c531659141344cd1fd0a4f28419497f9722a3daafe3b4186f6b6457e060405160405180910390a35050565b600080fd5b600073ffffffffffffffffffffffffffffffffffffffff82169050919050565b6000620001da82620001ad565b9050919050565b6000620001ee82620001cd565b9050919050565b6200020081620001e1565b81146200020c57600080fd5b50565b6000815190506200022081620001f5565b92915050565b6000819050919050565b6200023b8162000226565b81146200024757600080fd5b50565b6000815190506200025b8162000230565b92915050565b600080604083850312156200027b576200027a620001a8565b5b60006200028b858286016200020f565b92505060206200029e858286016200024a565b9150509250929050565b6118d080620002b86000396000f3fe6080604052600436106100f35760003560e01c8063a035b1fe1161008a578063dc5d6f5811610059578063dc5d6f5814610299578063eb91d37e146102d6578063f2fde38b14610301578063fc0c546a1461032a576100f3565b8063a035b1fe146101fc578063bc31c1c114610227578063c7ad089514610264578063d0febe4c1461028f576100f3565b8063715018a6116100c6578063715018a61461017a5780638456cb59146101915780638da5cb5b146101a857806391b7f5ed146101d3576100f3565b8063380d831b146100f85780633f4ba83a1461010f5780635a18676c146101265780635c975abb1461014f575b600080fd5b34801561010457600080fd5b5061010d610355565b005b34801561011b57600080fd5b5061012461052e565b005b34801561013257600080fd5b5061014d60048036038101906101489190610fa6565b610540565b005b34801561015b57600080fd5b506101646105d9565b6040516101719190611039565b60405180910390f35b34801561018657600080fd5b5061018f6105ef565b005b34801561019d57600080fd5b506101a6610603565b005b3480156101b457600080fd5b506101bd610615565b6040516101ca9190611095565b60405180910390f35b3480156101df57600080fd5b506101fa60048036038101906101f591906110b0565b61063e565b005b34801561020857600080fd5b506102116106a0565b60405161021e91906110ec565b60405180910390f35b34801561023357600080fd5b5061024e600480360381019061024991906110b0565b6106a6565b60405161025b91906110ec565b60405180910390f35b34801561027057600080fd5b506102796106ca565b6040516102869190611039565b60405180910390f35b6102976106dd565b005b3480156102a557600080fd5b506102c060048036038101906102bb91906110b0565b610940565b6040516102cd91906110ec565b60405180910390f35b3480156102e257600080fd5b506102eb610964565b6040516102f891906110ec565b60405180910390f35b34801561030d57600080fd5b5061032860048036038101906103239190611133565b610a4e565b005b34801561033657600080fd5b5061033f610ad1565b60405161034c91906111bf565b60405180910390f35b61035d610af7565b600160009054906101000a900473ffffffffffffffffffffffffffffffffffffffff1673ffffffffffffffffffffffffffffffffffffffff1663a9059cbb6103a3610615565b600160009054906101000a900473ffffffffffffffffffffffffffffffffffffffff1673ffffffffffffffffffffffffffffffffffffffff166370a08231306040518263ffffffff1660e01b81526004016103fe9190611095565b602060405180830381865afa15801561041b573d6000803e3d6000fd5b505050506040513d601f19601f8201168201806040525081019061043f91906111ef565b6040518363ffffffff1660e01b815260040161045c92919061121c565b6020604051808303816000875af115801561047b573d6000803e3d6000fd5b505050506040513d601f19601f8201168201806040525081019061049f9190611271565b6104de576040517f08c379a00000000000000000000000000000000000000000000000000000000081526004016104d590611321565b60405180910390fd5b6104e6610615565b73ffffffffffffffffffffffffffffffffffffffff166108fc479081150290604051600060405180830381858888f1935050505015801561052b573d6000803e3d6000fd5b50565b610536610af7565b61053e610b75565b565b610548610af7565b805182511461058c576040517f08c379a00000000000000000000000000000000000000000000000000000000081526004016105839061138d565b60405180910390fd5b81600490805190602001906105a2929190610d99565b5080600590805190602001906105b9929190610d99565b506001600360006101000a81548160ff0219169083151502179055505050565b60008060149054906101000a900460ff16905090565b6105f7610af7565b6106016000610bd7565b565b61060b610af7565b610613610c9b565b565b60008060009054906101000a900473ffffffffffffffffffffffffffffffffffffffff16905090565b610646610af7565b600360009054906101000a900460ff1615610696576040517f08c379a000000000000000000000000000000000000000000000000000000000815260040161068d9061141f565b60405180910390fd5b8060028190555050565b60025481565b600481815481106106b657600080fd5b906000526020600020016000915090505481565b600360009054906101000a900460ff1681565b6106e5610cfe565b6000600360009054906101000a900460ff161561071657610704610964565b3461070f919061149d565b9050610727565b60025434610724919061149d565b90505b6000600160009054906101000a900473ffffffffffffffffffffffffffffffffffffffff1673ffffffffffffffffffffffffffffffffffffffff166370a08231306040518263ffffffff1660e01b81526004016107849190611095565b602060405180830381865afa1580156107a1573d6000803e3d6000fd5b505050506040513d601f19601f820116820180604052508101906107c591906111ef565b90506000821161080a576040517f08c379a00000000000000000000000000000000000000000000000000000000081526004016108019061151a565b60405180910390fd5b8082111561084d576040517f08c379a000000000000000000000000000000000000000000000000000000000815260040161084490611586565b60405180910390fd5b600160009054906101000a900473ffffffffffffffffffffffffffffffffffffffff1673ffffffffffffffffffffffffffffffffffffffff1663a9059cbb33846040518363ffffffff1660e01b81526004016108aa92919061121c565b6020604051808303816000875af11580156108c9573d6000803e3d6000fd5b505050506040513d601f19601f820116820180604052508101906108ed9190611271565b503373ffffffffffffffffffffffffffffffffffffffff167f5e5e995ce3133561afceaa51a9a154d5db228cd7525d34df5185582c18d3df098360405161093491906110ec565b60405180910390a25050565b6005818154811061095057600080fd5b906000526020600020016000915090505481565b6000600360009054906101000a900460ff16610984576002549050610a4b565b600060058054905090505b6000811115610a0f5760056001826109a791906115a6565b815481106109b8576109b76115da565b5b906000526020600020015442106109fc5760046001826109d891906115a6565b815481106109e9576109e86115da565b5b9060005260206000200154915050610a4b565b8080610a0790611609565b91505061098f565b506040517f08c379a0000000000000000000000000000000000000000000000000000000008152600401610a42906116a4565b60405180910390fd5b90565b610a56610af7565b600073ffffffffffffffffffffffffffffffffffffffff168173ffffffffffffffffffffffffffffffffffffffff1603610ac5576040517f08c379a0000000000000000000000000000000000000000000000000000000008152600401610abc90611736565b60405180910390fd5b610ace81610bd7565b50565b600160009054906101000a900473ffffffffffffffffffffffffffffffffffffffff1681565b610aff610d48565b73ffffffffffffffffffffffffffffffffffffffff16610b1d610615565b73ffffffffffffffffffffffffffffffffffffffff1614610b73576040517f08c379a0000000000000000000000000000000000000000000000000000000008152600401610b6a906117a2565b60405180910390fd5b565b610b7d610d50565b60008060146101000a81548160ff0219169083151502179055507f5db9ee0a495bf2e6ff9c91a7834c1ba4fdd244a5e8aa4e537bd38aeae4b073aa610bc0610d48565b604051610bcd9190611095565b60405180910390a1565b60008060009054906101000a900473ffffffffffffffffffffffffffffffffffffffff169050816000806101000a81548173ffffffffffffffffffffffffffffffffffffffff021916908373ffffffffffffffffffffffffffffffffffffffff1602179055508173ffffffffffffffffffffffffffffffffffffffff168173ffffffffffffffffffffffffffffffffffffffff167f8be0079c531659141344cd1fd0a4f28419497f9722a3daafe3b4186f6b6457e060405160405180910390a35050565b610ca3610cfe565b6001600060146101000a81548160ff0219169083151502179055507f62e78cea01bee320cd4e420270b5ea74000d11b0c9f74754ebdbfc544b05a258610ce7610d48565b604051610cf49190611095565b60405180910390a1565b610d066105d9565b15610d46576040517f08c379a0000000000000000000000000000000000000000000000000000000008152600401610d3d9061180e565b60405180910390fd5b565b600033905090565b610d586105d9565b610d97576040517f08c379a0000000000000000000000000000000000000000000000000000000008152600401610d8e9061187a565b60405180910390fd5b565b828054828255906000526020600020908101928215610dd5579160200282015b82811115610dd4578251825591602001919060010190610db9565b5b509050610de29190610de6565b5090565b5b80821115610dff576000816000905550600101610de7565b5090565b6000604051905090565b600080fd5b600080fd5b600080fd5b6000601f19601f8301169050919050565b7f4e487b7100000000000000000000000000000000000000000000000000000000600052604160045260246000fd5b610e6582610e1c565b810181811067ffffffffffffffff82111715610e8457610e83610e2d565b5b80604052505050565b6000610e97610e03565b9050610ea38282610e5c565b919050565b600067ffffffffffffffff821115610ec357610ec2610e2d565b5b602082029050602081019050919050565b600080fd5b6000819050919050565b610eec81610ed9565b8114610ef757600080fd5b50565b600081359050610f0981610ee3565b92915050565b6000610f22610f1d84610ea8565b610e8d565b90508083825260208201905060208402830185811115610f4557610f44610ed4565b5b835b81811015610f6e5780610f5a8882610efa565b845260208401935050602081019050610f47565b5050509392505050565b600082601f830112610f8d57610f8c610e17565b5b8135610f9d848260208601610f0f565b91505092915050565b60008060408385031215610fbd57610fbc610e0d565b5b600083013567ffffffffffffffff811115610fdb57610fda610e12565b5b610fe785828601610f78565b925050602083013567ffffffffffffffff81111561100857611007610e12565b5b61101485828601610f78565b9150509250929050565b60008115159050919050565b6110338161101e565b82525050565b600060208201905061104e600083018461102a565b92915050565b600073ffffffffffffffffffffffffffffffffffffffff82169050919050565b600061107f82611054565b9050919050565b61108f81611074565b82525050565b60006020820190506110aa6000830184611086565b92915050565b6000602082840312156110c6576110c5610e0d565b5b60006110d484828501610efa565b91505092915050565b6110e681610ed9565b82525050565b600060208201905061110160008301846110dd565b92915050565b61111081611074565b811461111b57600080fd5b50565b60008135905061112d81611107565b92915050565b60006020828403121561114957611148610e0d565b5b60006111578482850161111e565b91505092915050565b6000819050919050565b600061118561118061117b84611054565b611160565b611054565b9050919050565b60006111978261116a565b9050919050565b60006111a98261118c565b9050919050565b6111b98161119e565b82525050565b60006020820190506111d460008301846111b0565b92915050565b6000815190506111e981610ee3565b92915050565b60006020828403121561120557611204610e0d565b5b6000611213848285016111da565b91505092915050565b60006040820190506112316000830185611086565b61123e60208301846110dd565b9392505050565b61124e8161101e565b811461125957600080fd5b50565b60008151905061126b81611245565b92915050565b60006020828403121561128757611286610e0d565b5b60006112958482850161125c565b91505092915050565b600082825260208201905092915050565b7f4572726f72207472616e7366657272696e6720746f6b656e7320746f206f776e60008201527f6572000000000000000000000000000000000000000000000000000000000000602082015250565b600061130b60228361129e565b9150611316826112af565b604082019050919050565b6000602082019050818103600083015261133a816112fe565b9050919050565b7f417272617973206d757374206265207468652073616d65206c656e6774680000600082015250565b6000611377601e8361129e565b915061138282611341565b602082019050919050565b600060208201905081810360008301526113a68161136a565b9050919050565b7f43616e6e6f74206d616e75616c6c792073657420707269636520647572696e6760008201527f2074696d652d6261736564207068617365000000000000000000000000000000602082015250565b600061140960318361129e565b9150611414826113ad565b604082019050919050565b60006020820190508181036000830152611438816113fc565b9050919050565b7f4e487b7100000000000000000000000000000000000000000000000000000000600052601260045260246000fd5b7f4e487b7100000000000000000000000000000000000000000000000000000000600052601160045260246000fd5b60006114a882610ed9565b91506114b383610ed9565b9250826114c3576114c261143f565b5b828204905092915050565b7f596f75206e65656420746f2073656e6420736f6d652065746865720000000000600082015250565b6000611504601b8361129e565b915061150f826114ce565b602082019050919050565b60006020820190508181036000830152611533816114f7565b9050919050565b7f4e6f7420656e6f75676820746f6b656e73206c65667420666f722073616c6500600082015250565b6000611570601f8361129e565b915061157b8261153a565b602082019050919050565b6000602082019050818103600083015261159f81611563565b9050919050565b60006115b182610ed9565b91506115bc83610ed9565b92508282039050818111156115d4576115d361146e565b5b92915050565b7f4e487b7100000000000000000000000000000000000000000000000000000000600052603260045260246000fd5b600061161482610ed9565b9150600082036116275761162661146e565b5b600182039050919050565b7f4e6f20707269636520646566696e656420666f722063757272656e742074696d60008201527f6500000000000000000000000000000000000000000000000000000000000000602082015250565b600061168e60218361129e565b915061169982611632565b604082019050919050565b600060208201905081810360008301526116bd81611681565b9050919050565b7f4f776e61626c653a206e6577206f776e657220697320746865207a65726f206160008201527f6464726573730000000000000000000000000000000000000000000000000000602082015250565b600061172060268361129e565b915061172b826116c4565b604082019050919050565b6000602082019050818103600083015261174f81611713565b9050919050565b7f4f776e61626c653a2063616c6c6572206973206e6f7420746865206f776e6572600082015250565b600061178c60208361129e565b915061179782611756565b602082019050919050565b600060208201905081810360008301526117bb8161177f565b9050919050565b7f5061757361626c653a2070617573656400000000000000000000000000000000600082015250565b60006117f860108361129e565b9150611803826117c2565b602082019050919050565b60006020820190508181036000830152611827816117eb565b9050919050565b7f5061757361626c653a206e6f7420706175736564000000000000000000000000600082015250565b600061186460148361129e565b915061186f8261182e565b602082019050919050565b6000602082019050818103600083015261189381611857565b905091905056fea26469706673582212208d6c5d4dbbe1690f8167680dd25f01e90b8d0a70a617330802bf815a963ee71764736f6c63430008130033",
  "immutableReferences": {},
  "source": "// SPDX-License-Identifier: MIT\r\npragma solidity ^0.8.0;\r\n\r\nimport \"@openzeppelin/contracts/token/ERC20/IERC20.sol\";\r\nimport \"@openzeppelin/contracts/access/Ownable.sol\";\r\nimport \"@openzeppelin/contracts/security/Pausable.sol\";\r\n\r\ncontract TokenSale is Ownable, Pausable {\r\n    IERC20 public token;\r\n    uint256 public price;\r\n    bool public isTimeBased = false;\r\n    uint256[] public prices;\r\n    uint256[] public priceChangeTimestamps;\r\n\r\n    event Sell(address indexed _buyer, uint256 _amount);\r\n\r\n    constructor(IERC20 _token, uint256 _price) {\r\n        token = _token;\r\n        price = _price;\r\n    }\r\n\r\n    function buyTokens() external payable whenNotPaused {\r\n        uint256 amountToBuy;\r\n        if (isTimeBased) {\r\n            amountToBuy = msg.value / getCurrentPrice();\r\n        } else {\r\n            amountToBuy = msg.value / price;\r\n        }\r\n        uint256 contractBalance = token.balanceOf(address(this));\r\n\r\n        require(amountToBuy > 0, \"You need to send some ether\");\r\n        require(\r\n            amountToBuy <= contractBalance,\r\n            \"Not enough tokens left for sale\"\r\n        );\r\n\r\n        token.transfer(msg.sender, amountToBuy);\r\n\r\n        emit Sell(msg.sender, amountToBuy);\r\n    }\r\n\r\n    function getCurrentPrice() public view returns (uint256) {\r\n        if (!isTimeBased) {\r\n            return price;\r\n        }\r\n        for (uint i = priceChangeTimestamps.length; i > 0; i--) {\r\n            if (block.timestamp >= priceChangeTimestamps[i - 1]) {\r\n                return prices[i - 1];\r\n            }\r\n        }\r\n        revert(\"No price defined for current time\");\r\n    }\r\n\r\n    function setPrice(uint256 _price) external onlyOwner {\r\n        require(\r\n            !isTimeBased,\r\n            \"Cannot manually set price during time-based phase\"\r\n        );\r\n        price = _price;\r\n    }\r\n\r\n    function switchToTimeBasedTiers(\r\n        uint256[] memory newPrices,\r\n        uint256[] memory timestamps\r\n    ) external onlyOwner {\r\n        require(\r\n            newPrices.length == timestamps.length,\r\n            \"Arrays must be the same length\"\r\n        );\r\n        prices = newPrices;\r\n        priceChangeTimestamps = timestamps;\r\n        isTimeBased = true;\r\n    }\r\n\r\n    function pause() external onlyOwner {\r\n        _pause();\r\n    }\r\n\r\n    function unpause() external onlyOwner {\r\n        _unpause();\r\n    }\r\n\r\n    function endSale() external onlyOwner {\r\n        // Send unsold tokens to the owner\r\n        require(\r\n            token.transfer(owner(), token.balanceOf(address(this))),\r\n            \"Error transferring tokens to owner\"\r\n        );\r\n\r\n        // Send Ether received during the sale to the owner\r\n        payable(owner()).transfer(address(this).balance);\r\n    }\r\n}\r\n",
  "sourcePath": "C:\\Users\\Fonck\\Development\\web3-rocketeers\\token-sale-contract\\contracts\\token-sale.sol",
  "compiler": {
    "name": "solc",
    "version": "0.8.19+commit.7dd6d404.Emscripten.clang"
  },
  "schemaVersion": "3.4.13",
  "updatedAt": "2023-06-13T16:53:45.474Z",
  "devdoc": {
    "events": {
      "Paused(address)": {
        "details": "Emitted when the pause is triggered by `account`."
      },
      "Unpaused(address)": {
        "details": "Emitted when the pause is lifted by `account`."
      }
    },
    "kind": "dev",
    "methods": {
      "owner()": {
        "details": "Returns the address of the current owner."
      },
      "paused()": {
        "details": "Returns true if the contract is paused, and false otherwise."
      },
      "renounceOwnership()": {
        "details": "Leaves the contract without owner. It will not be possible to call `onlyOwner` functions anymore. Can only be called by the current owner. NOTE: Renouncing ownership will leave the contract without an owner, thereby removing any functionality that is only available to the owner."
      },
      "transferOwnership(address)": {
        "details": "Transfers ownership of the contract to a new account (`newOwner`). Can only be called by the current owner."
      }
    },
    "version": 1
  },
  "userdoc": {
    "kind": "user",
    "methods": {},
    "version": 1
  }
}