{
  "contractName": "TokenSale",
  "abi": [
    {
      "inputs": [
        {
          "internalType": "contract IERC20",
          "name": "_token",
          "type": "address"
        },
        {
          "internalType": "uint256",
          "name": "_price",
          "type": "uint256"
        }
      ],
      "stateMutability": "nonpayable",
      "type": "constructor"
    },
    {
      "anonymous": false,
      "inputs": [
        {
          "indexed": true,
          "internalType": "address",
          "name": "previousOwner",
          "type": "address"
        },
        {
          "indexed": true,
          "internalType": "address",
          "name": "newOwner",
          "type": "address"
        }
      ],
      "name": "OwnershipTransferred",
      "type": "event"
    },
    {
      "anonymous": false,
      "inputs": [
        {
          "indexed": false,
          "internalType": "address",
          "name": "account",
          "type": "address"
        }
      ],
      "name": "Paused",
      "type": "event"
    },
    {
      "anonymous": false,
      "inputs": [
        {
          "indexed": true,
          "internalType": "address",
          "name": "_buyer",
          "type": "address"
        },
        {
          "indexed": false,
          "internalType": "uint256",
          "name": "_amount",
          "type": "uint256"
        }
      ],
      "name": "Sell",
      "type": "event"
    },
    {
      "anonymous": false,
      "inputs": [
        {
          "indexed": false,
          "internalType": "address",
          "name": "account",
          "type": "address"
        }
      ],
      "name": "Unpaused",
      "type": "event"
    },
    {
      "inputs": [],
      "name": "isTimeBased",
      "outputs": [
        {
          "internalType": "bool",
          "name": "",
          "type": "bool"
        }
      ],
      "stateMutability": "view",
      "type": "function"
    },
    {
      "inputs": [],
      "name": "owner",
      "outputs": [
        {
          "internalType": "address",
          "name": "",
          "type": "address"
        }
      ],
      "stateMutability": "view",
      "type": "function"
    },
    {
      "inputs": [],
      "name": "paused",
      "outputs": [
        {
          "internalType": "bool",
          "name": "",
          "type": "bool"
        }
      ],
      "stateMutability": "view",
      "type": "function"
    },
    {
      "inputs": [],
      "name": "price",
      "outputs": [
        {
          "internalType": "uint256",
          "name": "",
          "type": "uint256"
        }
      ],
      "stateMutability": "view",
      "type": "function"
    },
    {
      "inputs": [
        {
          "internalType": "uint256",
          "name": "",
          "type": "uint256"
        }
      ],
      "name": "priceChangeTimestamps",
      "outputs": [
        {
          "internalType": "uint256",
          "name": "",
          "type": "uint256"
        }
      ],
      "stateMutability": "view",
      "type": "function"
    },
    {
      "inputs": [
        {
          "internalType": "uint256",
          "name": "",
          "type": "uint256"
        }
      ],
      "name": "prices",
      "outputs": [
        {
          "internalType": "uint256",
          "name": "",
          "type": "uint256"
        }
      ],
      "stateMutability": "view",
      "type": "function"
    },
    {
      "inputs": [],
      "name": "renounceOwnership",
      "outputs": [],
      "stateMutability": "nonpayable",
      "type": "function"
    },
    {
      "inputs": [],
      "name": "token",
      "outputs": [
        {
          "internalType": "contract IERC20",
          "name": "",
          "type": "address"
        }
      ],
      "stateMutability": "view",
      "type": "function"
    },
    {
      "inputs": [
        {
          "internalType": "address",
          "name": "newOwner",
          "type": "address"
        }
      ],
      "name": "transferOwnership",
      "outputs": [],
      "stateMutability": "nonpayable",
      "type": "function"
    },
    {
      "inputs": [],
      "name": "buyTokens",
      "outputs": [],
      "stateMutability": "payable",
      "type": "function"
    },
    {
      "inputs": [],
      "name": "getCurrentPrice",
      "outputs": [
        {
          "internalType": "uint256",
          "name": "",
          "type": "uint256"
        }
      ],
      "stateMutability": "view",
      "type": "function"
    },
    {
      "inputs": [
        {
          "internalType": "uint256",
          "name": "_price",
          "type": "uint256"
        }
      ],
      "name": "setPrice",
      "outputs": [],
      "stateMutability": "nonpayable",
      "type": "function"
    },
    {
      "inputs": [
        {
          "internalType": "uint256[]",
          "name": "newPrices",
          "type": "uint256[]"
        },
        {
          "internalType": "uint256[]",
          "name": "timestamps",
          "type": "uint256[]"
        }
      ],
      "name": "switchToTimeBasedTiers",
      "outputs": [],
      "stateMutability": "nonpayable",
      "type": "function"
    },
    {
      "inputs": [],
      "name": "pause",
      "outputs": [],
      "stateMutability": "nonpayable",
      "type": "function"
    },
    {
      "inputs": [],
      "name": "unpause",
      "outputs": [],
      "stateMutability": "nonpayable",
      "type": "function"
    },
    {
      "inputs": [],
      "name": "endSale",
      "outputs": [],
      "stateMutability": "nonpayable",
      "type": "function"
    }
  ],
  "bytecode": "0x60806040526000600360006101000a81548160ff0219169083151502179055503480156200002c57600080fd5b5060405162001bf038038062001bf0833981810160405281019062000052919062000261565b6200007262000066620000dc60201b60201c565b620000e460201b60201c565b60008060146101000a81548160ff02191690831515021790555081600160006101000a81548173ffffffffffffffffffffffffffffffffffffffff021916908373ffffffffffffffffffffffffffffffffffffffff160217905550806002819055505050620002a8565b600033905090565b60008060009054906101000a900473ffffffffffffffffffffffffffffffffffffffff169050816000806101000a81548173ffffffffffffffffffffffffffffffffffffffff021916908373ffffffffffffffffffffffffffffffffffffffff1602179055508173ffffffffffffffffffffffffffffffffffffffff168173ffffffffffffffffffffffffffffffffffffffff167f8be0079c531659141344cd1fd0a4f28419497f9722a3daafe3b4186f6b6457e060405160405180910390a35050565b600080fd5b600073ffffffffffffffffffffffffffffffffffffffff82169050919050565b6000620001da82620001ad565b9050919050565b6000620001ee82620001cd565b9050919050565b6200020081620001e1565b81146200020c57600080fd5b50565b6000815190506200022081620001f5565b92915050565b6000819050919050565b6200023b8162000226565b81146200024757600080fd5b50565b6000815190506200025b8162000230565b92915050565b600080604083850312156200027b576200027a620001a8565b5b60006200028b858286016200020f565b92505060206200029e858286016200024a565b9150509250929050565b61193880620002b86000396000f3fe6080604052600436106100f35760003560e01c8063a035b1fe1161008a578063dc5d6f5811610059578063dc5d6f5814610299578063eb91d37e146102d6578063f2fde38b14610301578063fc0c546a1461032a576100f3565b8063a035b1fe146101fc578063bc31c1c114610227578063c7ad089514610264578063d0febe4c1461028f576100f3565b8063715018a6116100c6578063715018a61461017a5780638456cb59146101915780638da5cb5b146101a857806391b7f5ed146101d3576100f3565b8063380d831b146100f85780633f4ba83a1461010f5780635a18676c146101265780635c975abb1461014f575b600080fd5b34801561010457600080fd5b5061010d610355565b005b34801561011b57600080fd5b5061012461052e565b005b34801561013257600080fd5b5061014d60048036038101906101489190610fcc565b610540565b005b34801561015b57600080fd5b506101646105d9565b604051610171919061105f565b60405180910390f35b34801561018657600080fd5b5061018f6105ef565b005b34801561019d57600080fd5b506101a6610603565b005b3480156101b457600080fd5b506101bd610615565b6040516101ca91906110bb565b60405180910390f35b3480156101df57600080fd5b506101fa60048036038101906101f591906110d6565b61063e565b005b34801561020857600080fd5b506102116106a0565b60405161021e9190611112565b60405180910390f35b34801561023357600080fd5b5061024e600480360381019061024991906110d6565b6106a6565b60405161025b9190611112565b60405180910390f35b34801561027057600080fd5b506102796106ca565b604051610286919061105f565b60405180910390f35b6102976106dd565b005b3480156102a557600080fd5b506102c060048036038101906102bb91906110d6565b610966565b6040516102cd9190611112565b60405180910390f35b3480156102e257600080fd5b506102eb61098a565b6040516102f89190611112565b60405180910390f35b34801561030d57600080fd5b5061032860048036038101906103239190611159565b610a74565b005b34801561033657600080fd5b5061033f610af7565b60405161034c91906111e5565b60405180910390f35b61035d610b1d565b600160009054906101000a900473ffffffffffffffffffffffffffffffffffffffff1673ffffffffffffffffffffffffffffffffffffffff1663a9059cbb6103a3610615565b600160009054906101000a900473ffffffffffffffffffffffffffffffffffffffff1673ffffffffffffffffffffffffffffffffffffffff166370a08231306040518263ffffffff1660e01b81526004016103fe91906110bb565b602060405180830381865afa15801561041b573d6000803e3d6000fd5b505050506040513d601f19601f8201168201806040525081019061043f9190611215565b6040518363ffffffff1660e01b815260040161045c929190611242565b6020604051808303816000875af115801561047b573d6000803e3d6000fd5b505050506040513d601f19601f8201168201806040525081019061049f9190611297565b6104de576040517f08c379a00000000000000000000000000000000000000000000000000000000081526004016104d590611347565b60405180910390fd5b6104e6610615565b73ffffffffffffffffffffffffffffffffffffffff166108fc479081150290604051600060405180830381858888f1935050505015801561052b573d6000803e3d6000fd5b50565b610536610b1d565b61053e610b9b565b565b610548610b1d565b805182511461058c576040517f08c379a0000000000000000000000000000000000000000000000000000000008152600401610583906113b3565b60405180910390fd5b81600490805190602001906105a2929190610dbf565b5080600590805190602001906105b9929190610dbf565b506001600360006101000a81548160ff0219169083151502179055505050565b60008060149054906101000a900460ff16905090565b6105f7610b1d565b6106016000610bfd565b565b61060b610b1d565b610613610cc1565b565b60008060009054906101000a900473ffffffffffffffffffffffffffffffffffffffff16905090565b610646610b1d565b600360009054906101000a900460ff1615610696576040517f08c379a000000000000000000000000000000000000000000000000000000000815260040161068d90611445565b60405180910390fd5b8060028190555050565b60025481565b600481815481106106b657600080fd5b906000526020600020016000915090505481565b600360009054906101000a900460ff1681565b6106e5610d24565b6000600360009054906101000a900460ff161561072957670de0b6b3a764000061070d61098a565b346107189190611494565b6107229190611505565b905061074d565b670de0b6b3a7640000600254346107409190611494565b61074a9190611505565b90505b6000600160009054906101000a900473ffffffffffffffffffffffffffffffffffffffff1673ffffffffffffffffffffffffffffffffffffffff166370a08231306040518263ffffffff1660e01b81526004016107aa91906110bb565b602060405180830381865afa1580156107c7573d6000803e3d6000fd5b505050506040513d601f19601f820116820180604052508101906107eb9190611215565b905060008211610830576040517f08c379a000000000000000000000000000000000000000000000000000000000815260040161082790611582565b60405180910390fd5b80821115610873576040517f08c379a000000000000000000000000000000000000000000000000000000000815260040161086a906115ee565b60405180910390fd5b600160009054906101000a900473ffffffffffffffffffffffffffffffffffffffff1673ffffffffffffffffffffffffffffffffffffffff1663a9059cbb33846040518363ffffffff1660e01b81526004016108d0929190611242565b6020604051808303816000875af11580156108ef573d6000803e3d6000fd5b505050506040513d601f19601f820116820180604052508101906109139190611297565b503373ffffffffffffffffffffffffffffffffffffffff167f5e5e995ce3133561afceaa51a9a154d5db228cd7525d34df5185582c18d3df098360405161095a9190611112565b60405180910390a25050565b6005818154811061097657600080fd5b906000526020600020016000915090505481565b6000600360009054906101000a900460ff166109aa576002549050610a71565b600060058054905090505b6000811115610a355760056001826109cd919061160e565b815481106109de576109dd611642565b5b90600052602060002001544210610a225760046001826109fe919061160e565b81548110610a0f57610a0e611642565b5b9060005260206000200154915050610a71565b8080610a2d90611671565b9150506109b5565b506040517f08c379a0000000000000000000000000000000000000000000000000000000008152600401610a689061170c565b60405180910390fd5b90565b610a7c610b1d565b600073ffffffffffffffffffffffffffffffffffffffff168173ffffffffffffffffffffffffffffffffffffffff1603610aeb576040517f08c379a0000000000000000000000000000000000000000000000000000000008152600401610ae29061179e565b60405180910390fd5b610af481610bfd565b50565b600160009054906101000a900473ffffffffffffffffffffffffffffffffffffffff1681565b610b25610d6e565b73ffffffffffffffffffffffffffffffffffffffff16610b43610615565b73ffffffffffffffffffffffffffffffffffffffff1614610b99576040517f08c379a0000000000000000000000000000000000000000000000000000000008152600401610b909061180a565b60405180910390fd5b565b610ba3610d76565b60008060146101000a81548160ff0219169083151502179055507f5db9ee0a495bf2e6ff9c91a7834c1ba4fdd244a5e8aa4e537bd38aeae4b073aa610be6610d6e565b604051610bf391906110bb565b60405180910390a1565b60008060009054906101000a900473ffffffffffffffffffffffffffffffffffffffff169050816000806101000a81548173ffffffffffffffffffffffffffffffffffffffff021916908373ffffffffffffffffffffffffffffffffffffffff1602179055508173ffffffffffffffffffffffffffffffffffffffff168173ffffffffffffffffffffffffffffffffffffffff167f8be0079c531659141344cd1fd0a4f28419497f9722a3daafe3b4186f6b6457e060405160405180910390a35050565b610cc9610d24565b6001600060146101000a81548160ff0219169083151502179055507f62e78cea01bee320cd4e420270b5ea74000d11b0c9f74754ebdbfc544b05a258610d0d610d6e565b604051610d1a91906110bb565b60405180910390a1565b610d2c6105d9565b15610d6c576040517f08c379a0000000000000000000000000000000000000000000000000000000008152600401610d6390611876565b60405180910390fd5b565b600033905090565b610d7e6105d9565b610dbd576040517f08c379a0000000000000000000000000000000000000000000000000000000008152600401610db4906118e2565b60405180910390fd5b565b828054828255906000526020600020908101928215610dfb579160200282015b82811115610dfa578251825591602001919060010190610ddf565b5b509050610e089190610e0c565b5090565b5b80821115610e25576000816000905550600101610e0d565b5090565b6000604051905090565b600080fd5b600080fd5b600080fd5b6000601f19601f8301169050919050565b7f4e487b7100000000000000000000000000000000000000000000000000000000600052604160045260246000fd5b610e8b82610e42565b810181811067ffffffffffffffff82111715610eaa57610ea9610e53565b5b80604052505050565b6000610ebd610e29565b9050610ec98282610e82565b919050565b600067ffffffffffffffff821115610ee957610ee8610e53565b5b602082029050602081019050919050565b600080fd5b6000819050919050565b610f1281610eff565b8114610f1d57600080fd5b50565b600081359050610f2f81610f09565b92915050565b6000610f48610f4384610ece565b610eb3565b90508083825260208201905060208402830185811115610f6b57610f6a610efa565b5b835b81811015610f945780610f808882610f20565b845260208401935050602081019050610f6d565b5050509392505050565b600082601f830112610fb357610fb2610e3d565b5b8135610fc3848260208601610f35565b91505092915050565b60008060408385031215610fe357610fe2610e33565b5b600083013567ffffffffffffffff81111561100157611000610e38565b5b61100d85828601610f9e565b925050602083013567ffffffffffffffff81111561102e5761102d610e38565b5b61103a85828601610f9e565b9150509250929050565b60008115159050919050565b61105981611044565b82525050565b60006020820190506110746000830184611050565b92915050565b600073ffffffffffffffffffffffffffffffffffffffff82169050919050565b60006110a58261107a565b9050919050565b6110b58161109a565b82525050565b60006020820190506110d060008301846110ac565b92915050565b6000602082840312156110ec576110eb610e33565b5b60006110fa84828501610f20565b91505092915050565b61110c81610eff565b82525050565b60006020820190506111276000830184611103565b92915050565b6111368161109a565b811461114157600080fd5b50565b6000813590506111538161112d565b92915050565b60006020828403121561116f5761116e610e33565b5b600061117d84828501611144565b91505092915050565b6000819050919050565b60006111ab6111a66111a18461107a565b611186565b61107a565b9050919050565b60006111bd82611190565b9050919050565b60006111cf826111b2565b9050919050565b6111df816111c4565b82525050565b60006020820190506111fa60008301846111d6565b92915050565b60008151905061120f81610f09565b92915050565b60006020828403121561122b5761122a610e33565b5b600061123984828501611200565b91505092915050565b600060408201905061125760008301856110ac565b6112646020830184611103565b9392505050565b61127481611044565b811461127f57600080fd5b50565b6000815190506112918161126b565b92915050565b6000602082840312156112ad576112ac610e33565b5b60006112bb84828501611282565b91505092915050565b600082825260208201905092915050565b7f4572726f72207472616e7366657272696e6720746f6b656e7320746f206f776e60008201527f6572000000000000000000000000000000000000000000000000000000000000602082015250565b60006113316022836112c4565b915061133c826112d5565b604082019050919050565b6000602082019050818103600083015261136081611324565b9050919050565b7f417272617973206d757374206265207468652073616d65206c656e6774680000600082015250565b600061139d601e836112c4565b91506113a882611367565b602082019050919050565b600060208201905081810360008301526113cc81611390565b9050919050565b7f43616e6e6f74206d616e75616c6c792073657420707269636520647572696e6760008201527f2074696d652d6261736564207068617365000000000000000000000000000000602082015250565b600061142f6031836112c4565b915061143a826113d3565b604082019050919050565b6000602082019050818103600083015261145e81611422565b9050919050565b7f4e487b7100000000000000000000000000000000000000000000000000000000600052601160045260246000fd5b600061149f82610eff565b91506114aa83610eff565b92508282026114b881610eff565b915082820484148315176114cf576114ce611465565b5b5092915050565b7f4e487b7100000000000000000000000000000000000000000000000000000000600052601260045260246000fd5b600061151082610eff565b915061151b83610eff565b92508261152b5761152a6114d6565b5b828204905092915050565b7f596f75206e65656420746f2073656e6420736f6d652065746865720000000000600082015250565b600061156c601b836112c4565b915061157782611536565b602082019050919050565b6000602082019050818103600083015261159b8161155f565b9050919050565b7f4e6f7420656e6f75676820746f6b656e73206c65667420666f722073616c6500600082015250565b60006115d8601f836112c4565b91506115e3826115a2565b602082019050919050565b60006020820190508181036000830152611607816115cb565b9050919050565b600061161982610eff565b915061162483610eff565b925082820390508181111561163c5761163b611465565b5b92915050565b7f4e487b7100000000000000000000000000000000000000000000000000000000600052603260045260246000fd5b600061167c82610eff565b91506000820361168f5761168e611465565b5b600182039050919050565b7f4e6f20707269636520646566696e656420666f722063757272656e742074696d60008201527f6500000000000000000000000000000000000000000000000000000000000000602082015250565b60006116f66021836112c4565b91506117018261169a565b604082019050919050565b60006020820190508181036000830152611725816116e9565b9050919050565b7f4f776e61626c653a206e6577206f776e657220697320746865207a65726f206160008201527f6464726573730000000000000000000000000000000000000000000000000000602082015250565b60006117886026836112c4565b91506117938261172c565b604082019050919050565b600060208201905081810360008301526117b78161177b565b9050919050565b7f4f776e61626c653a2063616c6c6572206973206e6f7420746865206f776e6572600082015250565b60006117f46020836112c4565b91506117ff826117be565b602082019050919050565b60006020820190508181036000830152611823816117e7565b9050919050565b7f5061757361626c653a2070617573656400000000000000000000000000000000600082015250565b60006118606010836112c4565b915061186b8261182a565b602082019050919050565b6000602082019050818103600083015261188f81611853565b9050919050565b7f5061757361626c653a206e6f7420706175736564000000000000000000000000600082015250565b60006118cc6014836112c4565b91506118d782611896565b602082019050919050565b600060208201905081810360008301526118fb816118bf565b905091905056fea26469706673582212205b88b0abaa9e721e96f1aa3da26d336481f5448ff0d2a9dc20c2a17fcb53949564736f6c63430008130033",
  "immutableReferences": {},
  "source": "// SPDX-License-Identifier: MIT\r\npragma solidity ^0.8.0;\r\nimport \"@openzeppelin/contracts/token/ERC20/IERC20.sol\";\r\nimport \"@openzeppelin/contracts/access/Ownable.sol\";\r\nimport \"@openzeppelin/contracts/security/Pausable.sol\";\r\n\r\ncontract TokenSale is Ownable, Pausable {\r\n    IERC20 public token;\r\n    uint256 public price;\r\n    uint256 private constant ONE_TOKEN = 10 ** 18; //Tokens are typically divisible to 18 decimal places\r\n    bool public isTimeBased = false;\r\n    uint256[] public prices;\r\n    uint256[] public priceChangeTimestamps;\r\n    event Sell(address indexed _buyer, uint256 _amount);\r\n\r\n    constructor(IERC20 _token, uint256 _price) {\r\n        token = _token;\r\n        price = _price;\r\n    }\r\n\r\n    function buyTokens() external payable whenNotPaused {\r\n        uint256 amountToBuy;\r\n        if (isTimeBased) {\r\n            amountToBuy = (msg.value * getCurrentPrice()) / ONE_TOKEN;\r\n        } else {\r\n            amountToBuy = (msg.value * price) / ONE_TOKEN;\r\n        }\r\n        uint256 contractBalance = token.balanceOf(address(this));\r\n\r\n        require(amountToBuy > 0, \"You need to send some ether\");\r\n        require(\r\n            amountToBuy <= contractBalance,\r\n            \"Not enough tokens left for sale\"\r\n        );\r\n        token.transfer(msg.sender, amountToBuy);\r\n        emit Sell(msg.sender, amountToBuy);\r\n    }\r\n\r\n    function getCurrentPrice() public view returns (uint256) {\r\n        if (!isTimeBased) {\r\n            return price;\r\n        }\r\n        for (uint i = priceChangeTimestamps.length; i > 0; i--) {\r\n            if (block.timestamp >= priceChangeTimestamps[i - 1]) {\r\n                return prices[i - 1];\r\n            }\r\n        }\r\n        revert(\"No price defined for current time\");\r\n    }\r\n\r\n    function setPrice(uint256 _price) external onlyOwner {\r\n        require(\r\n            !isTimeBased,\r\n            \"Cannot manually set price during time-based phase\"\r\n        );\r\n        price = _price;\r\n    }\r\n\r\n    function switchToTimeBasedTiers(\r\n        uint256[] memory newPrices,\r\n        uint256[] memory timestamps\r\n    ) external onlyOwner {\r\n        require(\r\n            newPrices.length == timestamps.length,\r\n            \"Arrays must be the same length\"\r\n        );\r\n        prices = newPrices;\r\n        priceChangeTimestamps = timestamps;\r\n        isTimeBased = true;\r\n    }\r\n\r\n    function pause() external onlyOwner {\r\n        _pause();\r\n    }\r\n\r\n    function unpause() external onlyOwner {\r\n        _unpause();\r\n    }\r\n\r\n    function endSale() external onlyOwner {\r\n        // Send unsold tokens to the owner\r\n        require(\r\n            token.transfer(owner(), token.balanceOf(address(this))),\r\n            \"Error transferring tokens to owner\"\r\n        );\r\n        // Send Ether received during the sale to the owner\r\n        payable(owner()).transfer(address(this).balance);\r\n    }\r\n}\r\n",
  "sourcePath": "C:\\Users\\Fonck\\Development\\web3-rocketeers\\token-sale-contract\\contracts\\token-sale.sol",
  "compiler": {
    "name": "solc",
    "version": "0.8.19+commit.7dd6d404.Emscripten.clang"
  },
  "schemaVersion": "3.4.13",
  "updatedAt": "2023-06-25T21:47:42.045Z",
  "devdoc": {
    "events": {
      "Paused(address)": {
        "details": "Emitted when the pause is triggered by `account`."
      },
      "Unpaused(address)": {
        "details": "Emitted when the pause is lifted by `account`."
      }
    },
    "kind": "dev",
    "methods": {
      "owner()": {
        "details": "Returns the address of the current owner."
      },
      "paused()": {
        "details": "Returns true if the contract is paused, and false otherwise."
      },
      "renounceOwnership()": {
        "details": "Leaves the contract without owner. It will not be possible to call `onlyOwner` functions anymore. Can only be called by the current owner. NOTE: Renouncing ownership will leave the contract without an owner, thereby removing any functionality that is only available to the owner."
      },
      "transferOwnership(address)": {
        "details": "Transfers ownership of the contract to a new account (`newOwner`). Can only be called by the current owner."
      }
    },
    "version": 1
  },
  "userdoc": {
    "kind": "user",
    "methods": {},
    "version": 1
  }
}